{
  "contractName": "Pollcat",
  "abi": [
    {
      "constant": true,
      "inputs": [
        {
          "name": "",
          "type": "uint256"
        }
      ],
      "name": "polls",
      "outputs": [
        {
          "name": "name",
          "type": "bytes32"
        },
        {
          "name": "voteCount",
          "type": "uint256"
        }
      ],
      "payable": false,
      "stateMutability": "view",
      "type": "function"
    },
    {
      "inputs": [],
      "payable": false,
      "stateMutability": "nonpayable",
      "type": "constructor"
    },
    {
      "constant": false,
      "inputs": [
        {
          "name": "poll",
          "type": "uint256"
        }
      ],
      "name": "vote",
      "outputs": [],
      "payable": false,
      "stateMutability": "nonpayable",
      "type": "function"
    },
    {
      "constant": true,
      "inputs": [],
      "name": "winningProposal",
      "outputs": [
        {
          "name": "winningProposal_",
          "type": "uint256"
        }
      ],
      "payable": false,
      "stateMutability": "view",
      "type": "function"
    },
    {
      "constant": true,
      "inputs": [],
      "name": "winnerName",
      "outputs": [
        {
          "name": "winnerName_",
          "type": "bytes32"
        }
      ],
      "payable": false,
      "stateMutability": "view",
      "type": "function"
    }
  ],
  "bytecode": "0x6060604052341561000f57600080fd5b600080548060010182816100239190610114565b9160005260206000209060020201600060408051908101604052807f7065707369000000000000000000000000000000000000000000000000000000600019168152602001600081525090919091506000820151816000019060001916905560208201518160010155505050600080548060010182816100a39190610114565b9160005260206000209060020201600060408051908101604052807f636f6b6500000000000000000000000000000000000000000000000000000000600019168152602001600081525090919091506000820151816000019060001916905560208201518160010155505050610175565b815481835581811511610141576002028160020283600052602060002091820191016101409190610146565b5b505050565b61017291905b8082111561016e5760008082016000905560018201600090555060020161014c565b5090565b90565b610264806101846000396000f300606060405260043610610062576000357c0100000000000000000000000000000000000000000000000000000000900463ffffffff1680630121b93f14610067578063609ff1bd1461008a578063ac2f0074146100b3578063e2ba53f0146100f9575b600080fd5b341561007257600080fd5b610088600480803590602001909190505061012a565b005b341561009557600080fd5b61009d61015c565b6040518082815260200191505060405180910390f35b34156100be57600080fd5b6100d460048080359060200190919050506101d7565b6040518083600019166000191681526020018281526020019250505060405180910390f35b341561010457600080fd5b61010c61020a565b60405180826000191660001916815260200191505060405180910390f35b600160008281548110151561013b57fe5b90600052602060002090600202016001016000828254019250508190555050565b6000806000809150600090505b6000805490508110156101d2578160008281548110151561018657fe5b90600052602060002090600202016001015411156101c5576000818154811015156101ad57fe5b90600052602060002090600202016001015491508092505b8080600101915050610169565b505090565b6000818154811015156101e657fe5b90600052602060002090600202016000915090508060000154908060010154905082565b60008061021561015c565b81548110151561022157fe5b9060005260206000209060020201600001549050905600a165627a7a72305820cf76fc4501e9d6c874d50bbc681e4a3a52b36ec0eca700527f238aa13da0baca0029",
  "source": "pragma solidity ^0.4.4;\n\n\ncontract Pollcat {\n \n\n   \t// This is a type for a single proposal.\n    struct Poll {\n        bytes32 name;   // short name (up to 32 bytes)\n        uint voteCount; // number of accumulated votes\n    }\n\n    // A dynamically-sized array of `Poll` structs.\n    Poll[] public polls;\n\n\n  \tfunction Pollcat() public {\n    \t// constructor\n    \tpolls.push(Poll({\n                name: \"pepsi\",\n                voteCount: 0\n        }));\n    \tpolls.push(Poll({\n                name: \"coke\",\n                voteCount: 0\n        }));\n\n\n  \t}\n\n  \t//Vote for either coke or pepsi\n  \tfunction vote(uint poll) public {\n        //Vote for either pepsi or coke\n  \t\tpolls[poll].voteCount += 1;\n  \t}\n\n  \t/// @dev Computes the winning proposal taking all\n    /// previous votes into account.\n    function winningProposal() public view returns (uint winningProposal_)\n    {\n        uint winningVoteCount = 0;\n        for (uint p = 0; p < polls.length; p++) {\n            if (polls[p].voteCount > winningVoteCount) {\n                winningVoteCount = polls[p].voteCount;\n                winningProposal_ = p;\n            }\n        }\n        //console.log(\"The winning num is\" + winningProposal_);\n    }\n\n  \tfunction winnerName() constant public returns (bytes32 winnerName_)\n    {\n        return polls[winningProposal()].name;\n    }\n\n}\n",
  "sourcePath": "/Users/rsulatycki/Documents/RohinIData/Roshi/Blockchain/apps/PollCat/contracts/Pollcat.sol",
  "compiler": {
    "name": "solc",
    "version": "0.4.19+commit.c4cbbb05.Emscripten.clang"
  },
  "schemaVersion": "2.0.0",
  "updatedAt": "2018-04-24T20:04:08.115Z"
}